:100000000C9404020C9421020C9421020C94210201
:100010000C94AF0A0C9421020C9421020C9421023E
:100020000C9421020C9421020C9421020C94A00A3D
:100030000C9421020C9421020C9421020C942102B4
:100040000C9421020C9421020C9421020C942102A4
:100050000C9421020C9421020C9421020C94210294
:100060000C9421020C9421022F065D067E069F0649
:10007000D30601072F075D078307B107DF070008D5
:10008000340862089008BE08F20814093A0900E032
:1000900020124040C0020080E0126040400200E0B8
:1000A0008012C04040020020E0124040600200E0A8
:1000B000401240C040020040E01240604002006038
:1000C000C01280C0400200C060122060400200F0F8
:1000D00000002020202000606000E0A0A0A0E04000
:1000E00040404040E020E080E0E020E020E0A0A0B0
:1000F000E02020E080E020E0E080E0A0E0E02020C0
:100100002020E0A0E0A0E0E0A0E020E00808205FE0
:1001100000000000000000000808080808000800AF
:10012000141400000000000000247E24247E24001B
:10013000107C507C147C100000626408102646007D
:10014000001028102A443A000008100000000000A7
:10015000000810101010080000100808080810000F
:10016000000028107C102800000010107C101000E7
:100170000000000000080810000000007C000000E3
:1001800000000000001818000000040810204000C3
:1001900000788C94A4C478000060A0202020F8008F
:1001A000007884047880FC00007884180484780047
:1001B0000010305090FC100000FC80F8048478009F
:1001C000007880F88484780000FC04081020200067
:1001D0000078847884847800007884847C047800B3
:1001E000000000100000100000001000001010209F
:1001F00000000810201008000000007C007C0000B7
:100200000000201008102000003C420408000800F4
:10021000003C4A565E403C0000788484FC848400A4
:1002200000F884F88484F800007884808084780062
:1002300000F088848488F00000FFFFC0FFC0FFFF4B
:1002400000FC80F880808000007884809C847800A6
:10025000008484FC8484840000FFFF181818FFFFCA
:100260000004040484847800008890E0908884006E
:10027000008080808080FC000084CCB48484840072
:100280000084C4A4948C84000078848484847800DE
:1002900000F88484F880800000788484A494780036
:1002A00000FFFFC3FFD8CCC300FFFFC0FF03FFFF69
:1002B00000FFFF18181818180084848484847800BC
:1002C00000848484844830000084848484B448009A
:1002D0000084483030488400008244281010100008
:1002E00000FC08102040FC000038202020203800AE
:1002F00000004020100804000038080808083800F2
:10030000001038541010100000000000000000FE23
:100310003C4299A1A199423CFF877B7B037B7BFFF9
:10032000FF077B077B7B07FFFF877B7F7F7B87FF49
:10033000FF0F777B7B770FFFFF037F077F7F03FF35
:10034000FF037F077F7F7FFFFF877B7F637B87FFC5
:10035000FF7B7B037B7B7BFFFF83EFEFEFEF83FF75
:10036000FFFBFBFB7B7B87FFFF776F1F6F777BFFBD
:10037000FF7F7F7F7F7F03FFFF7B334B7B7B7BFF99
:10038000FF7B3B5B6B737BFFFF877B7B7B7B87FF0D
:10039000FF077B7B077F7FFFFF877B7B5B6B87FF95
:1003A000FF077B7B07777BFFFF877F87FB7B87FFD1
:1003B000FF01EFEFEFEFEFFFFF7B7B7B7B7B87FFA7
:1003C000FF7B7B7B7BB7CFFFFF7B7B7B7B4BB7FFD1
:1003D000FF7BB7CFCFB77BFFFF7DBBD7EFEFEFFF43
:1003E000FF03F7EFDFBF03FF001C106010101C00BD
:1003F00000101010101010000070100C1010700081
:10040000001428000000000011241FBECFEFD8E028
:10041000DEBFCDBF11E0A0E0B1E0EAEFF5E102C040
:1004200005900D92A830B107D9F711E0A8E0B1E02E
:1004300001C01D92AA32B107E1F70E94C7050C94D2
:10044000FB0A0C9400008CB580658CBD0895109259
:10045000C100E4E6F0E08081826080838FEF8AB99A
:10046000389A98B19E6198B9E8E6F0E09081926080
:100470009083ECE6F0E090819E61908394B184B922
:1004800085B1807D85B90895E1E8F0E080818D60D7
:10049000808380EB96E39093890080938800EFE659
:1004A000F0E08081826080830895ECE7F0E0808155
:1004B00080648083AAE7B0E08C9184688C9380810B
:1004C000856080830895EAE7F0E08081806480831E
:1004D000808186FDFDCF809178009091790096957E
:1004E00087959695879508958EBD0DB407FEFDCF2F
:1004F00008951F93182F892F0E947402812F0E9444
:1005000074021F91089581E080930A0110921F01E7
:1005100010922501109220011092210110922201C7
:1005200010922301EDE0F1E0CF0142961192E8171D
:10053000F907E1F782E1809308010895EF92FF92B5
:100540000F931F93CF93DF9301E111E0C0E0D0E060
:10055000EE24FF24E394C7010C2E02C0880F991FDC
:100560000A94E2F70E9479022A9AF80181918F0198
:1005700080958BB92A9889EF90E00197F1F700C038
:1005800000002196CC30D10531F7DF91CF911F913A
:100590000F91FF90EF9008959F92AF92BF92CF92EC
:1005A000DF92EF92FF920F931F93CF93DF931092FE
:1005B000080180E000E011E00F2EF3E1EF2EF1E002
:1005C000FF2EF02DE70128960F2EFBE1CF2EF1E054
:1005D000DF2EF02D56010894A11CB11C99246894BB
:1005E00094F810920C0110920B01F801E80FF11D24
:1005F000808190E0880F991F880F991F880F991F9D
:100600000496D701FC01E45FFE4FE491EE77ED9391
:100610000196AC17BD07B1F7F6011082F501108203
:100620009092090180910B0190910C01F3E0883EBA
:100630009F0778F40E949E0280910B0190910C011B
:10064000019690930C0180930B0123E0883E920762
:1006500088F3809108018F5F80930801863008F449
:10066000C0CFDF91CF911F910F91FF90EF90DF905E
:10067000CF90BF90AF909F900895CF92DF92EF926E
:10068000FF920F931F93CF93DF9301E111E0C0E03E
:10069000D0E0CC24DD24C394EE24FF246894E2F857
:1006A000EC0EFD1EC6010C2E02C0880F991F0A9485
:1006B000E2F70E947902409126014423FCF08091E8
:1006C0002701992787FD9095E816F906A4F0E81A06
:1006D000F90A34E0E316F10474F4F701E05EFE4F2A
:1006E000808190E002C0959587954A95E2F7F801E0
:1006F0002081822B2AC0F801808127C080912701A8
:10070000992787FD9095E816F906ECF0E81AF90AA2
:10071000F4E0EF16F104BCF4F701E05EFE4F208137
:1007200030E0842F992787FD9095909581959F4F74
:10073000A90102C0440F551F8A95E2F7CA01F801CA
:100740002081822B02C0F80180812A9A2A982A9A55
:1007500080958BB92A9889EF90E00197F1F700C056
:10076000000021960F5F1F4FCC30D10509F094CFC8
:10077000DF91CF911F910F91FF90EF90DF90CF907D
:10078000089520912401822F90E0880F991F880FEF
:10079000991FFC01E257FF4FE491E0932001FC0117
:1007A000E157FF4FE491E0932101FC01E057FF4F37
:1007B000E491E0932201203138F08F569F4FFC01E5
:1007C00084918093230108951092230108956091EC
:1007D000260166230CF44CC080912701992787FDE0
:1007E00090952DE031E0F901E80FF91F40912001CB
:1007F00050E0062E02C0559547950A94E2F77081A5
:10080000472B4083FC013196E20FF31F40912101F9
:1008100050E0062E02C0559547950A94E2F7708184
:10082000472B4083FC013296E20FF31F20912201F7
:1008300030E0062E02C0359527950A94E2F74081F4
:10084000242B208320912401213109F062C0FC0176
:10085000E05FFE4F8091230190E09C0102C035953E
:1008600027956A95E2F7B9018081682B608351C0B2
:1008700020912701332727FD3095862F992787FD63
:100880009095909581959F4F4DE051E0FA01E20FD0
:10089000F31F6091200170E0082E02C0660F771FE1
:1008A0000A94E2F7A0816A2B6083F9013196E40F84
:1008B000F51F6091210170E0082E02C0660F771FBE
:1008C0000A94E2F7A0816A2B6083F9013296E40F63
:1008D000F51F4091220150E0082E02C0440F551F21
:1008E0000A94E2F76081462B408340912401413114
:1008F00081F4F901E05FFE4F2091230130E0A9016E
:1009000002C0440F551F8A95E2F7CA012081822B4D
:10091000808380910F01882319F081E080931F016B
:10092000509125014FE08DE091E0FC01E40FF11DB5
:1009300020812F3F71F4442351F0242FFC01E20F5A
:10094000F11DDF0111973C9130832150B9F75F5FB2
:1009500001C04150443048F7509325010E94630282
:100960002091840030E0A901480F511DCA0163E1C4
:1009700070E00E94D40A80932401803138F483E02F
:100980008093260181E08093270119C0803131F4E2
:1009900082E0809326018093270111C0813131F4D8
:1009A00083E0809326011092270109C082E08093A2
:1009B000260181E08093270182E1809324010E9437
:1009C000C10308950F931F93CF93DF9310912601D6
:1009D00011235CF190912701292F30E0692F7727AF
:1009E00067FD7095FB0134962E173F070CF050C041
:1009F00080E0ADE0B1E0E901C61BD70BC05EDE4F81
:100A0000488150E0012E02C0559547950A94E2F7BF
:100A10002A0F3B1FE90128814223840F9F5F292F62
:100A200030E02E173F073CF336C090912701292F65
:100A300030E0692F772767FD7095FB0134962E17FC
:100A40003F0744F580E0C12FDD27C7FDD095002783
:100A500011270C1B1D0BADE0B1E0A901461B570B84
:100A6000405E5E4FEA01488150E0002E02C055957D
:100A700047950A94E2F72A0F3B1FE9012881422398
:100A8000840F9F5F292F30E02E173F0734F303C0F8
:100A900080E001C080E0DF91CF911F910F91089518
:100AA000EDE0F1E0CF0142961192E817F907E1F786
:100AB0000895AF92BF92DF92EF92FF920F931F9330
:100AC000CF93DF930E945005809125016AE00E9438
:100AD000C80A25E0829FE0011124929F8001112421
:100AE000DD240F2EF5E1AF2EF1E0BF2EF02DEE2428
:100AF000FF2440C0FC01EC0FFD1FE652FF4F249184
:100B0000FC01E00FF11FE652FF4FE491E295EF7018
:100B10002E2B2D9301968530910561F7F0920C01F3
:100B2000E0920B010E949E0280910B0190910C01BA
:100B3000019690930C0180930B0122E08835920777
:100B400088F30E945005F0920C01E0920B010E9484
:100B50009E0280910B0190910C01019690930C01E3
:100B600080930B0122E08835920788F3D3948D2D72
:100B70008A3019F0D501C701BDCFDF91CF911F9108
:100B80000F91FF90EF90DF90BF90AF9008952F925C
:100B90003F924F925F926F927F928F929F92AF920D
:100BA000BF92CF92DF92EF92FF920F931F93CF935A
:100BB000DF93F8940E9427020E9423020E944402BD
:100BC0000E9455020F2EF8E86F2E7724F02DCDE00D
:100BD000D1E00F2EF0EC2F2E3324F02D00E810E0A2
:100BE000CC24DD246894C6F80E9483020E94CC02C3
:100BF0000E945005789480911F01882309F099C4C0
:100C00000F2EF0E6EF2EFF24F02DAA24BB246894CB
:100C1000A5F80F2EF0EE8F2E9924F02D0F2EF0EA6E
:100C20004F2E5524F02D80910A01813021F40E942D
:100C3000E70310920A0180912801813009F042C334
:100C4000E0912401F0E0E331F10508F038C3EC5CF9
:100C5000FF4FEE0FFF1F0590F491E02D0994509186
:100C60002701E52FFF27E7FDF09540912601EC0FC6
:100C7000FD1F238130E0C501042E02C095958795A4
:100C80000A94E2F7B90168237923228130E0C10197
:100C900002C0959587954A95E2F782239323860FA4
:100CA000971F009731F45D3024F45F5F5093270164
:100CB00006C361E060930A0102C340912701842FBB
:100CC000992787FD90958C0F9D1FFC01238130E0B3
:100CD000C1010090260102C0959587950A94E2F71C
:100CE00082239323009731F44D3024F44F5F4093D7
:100CF0002701E5C2F1E0F0930A01E1C2409127012A
:100D0000842F992787FD90958C0F9D1FFC012381CF
:100D100030E0C4010090260102C0959587950A94A1
:100D2000E2F782239323009731F44D3024F44F5F90
:100D300040932701C4C2F1E0F0930A01C0C2A09120
:100D40002701EA2FFF27E7FDF095809126019927DB
:100D500087FD9095AC014F5F5F4FEC0FFD1F238126
:100D600030E0C801042E02C0959587950A94E2F7F9
:100D7000B90168237923218130E0C60102C095952D
:100D800087954A95E2F782239323860F971F009752
:100D900031F4AD3024F4AF5FA093270190C261E03D
:100DA00060930A018CC250912701E52FFF27E7FDD0
:100DB000F09540912601EC0FFD1F238130E0C80122
:100DC000042E02C0959587950A94E2F7B90168232D
:100DD0007923228130E0C70102C0959587954A9515
:100DE000E2F782239323860F971F009731F45D303B
:100DF00024F45F5F5093270162C271E070930A018F
:100E00005EC250912701E52FFF27E7FDF095409145
:100E10002601EC0FFD1F238130E0C601042E02C025
:100E2000959587950A94E2F7B90168237923218182
:100E300030E0C80102C0959587954A95E2F7822374
:100E40009323860F971F009731F45D3024F45F5F82
:100E50005093270134C281E080930A0130C250913F
:100E60002701E52FFF27E7FDF09540912601EC0FC4
:100E7000FD1F238130E0C801042E02C0959587959F
:100E80000A94E2F7B90168237923228130E0C7018F
:100E900002C0959587954A95E2F782239323860FA2
:100EA000971F009731F45D3024F45F5F5093270162
:100EB00006C291E090930A0102C220912701822F7D
:100EC000992787FD90958C0F9D1FFC01438150E071
:100ED00080912601992787FD90950196B10102C066
:100EE000759567958A95E2F7CB0184239523009742
:100EF00031F42D3024F42F5F20932701E0C171E0FD
:100F000070930A01DCC150912701E52FFF27E7FD0F
:100F1000F09540912601EC0FFD1F238130E0C601C2
:100F2000042E02C0959587950A94E2F7B9016823CB
:100F30007923228130E0C20102C0959587954A95B8
:100F4000E2F782239323860F971F009731F45D30D9
:100F500024F45F5F50932701B2C181E080930A01BE
:100F6000AEC150912701E52FFF27E7FDF095409195
:100F70002601EC0FFD1F238130E0C601042E02C0C4
:100F8000959587950A94E2F7B90168237923228120
:100F900030E0C80102C0959587954A95E2F7822313
:100FA0009323860F971F009731F45D3024F45F5F21
:100FB0005093270184C191E090930A0180C1409130
:100FC0002701842F992787FD90958C0F9D1FFC0189
:100FD000238130E0C4010090260102C095958795D9
:100FE0000A94E2F782239323009731F44D3024F4DE
:100FF0004F5F4093270163C1F1E0F0930A015FC1A5
:10100000A0912701EA2FFF27E7FDF09580912601A7
:10101000992787FD9095AC014F5F5F4FEC0FFD1F47
:10102000238130E0C801042E02C0959587950A946B
:10103000E2F7B90168237923228130E0C60102C0BA
:10104000959587954A95E2F782239323860F971FFC
:10105000009731F4AD3024F4AF5FA09327012FC186
:1010600061E060930A012BC150912701E52FFF2712
:10107000E7FDF09540912601EC0FFD1F238130E044
:10108000C101042E02C0959587950A94E2F7B90133
:1010900068237923228130E0C50102C095958795A8
:1010A0004A95E2F782239323860F971F009731F426
:1010B0005D3024F45F5F5093270101C171E07093AC
:1010C0000A01FDC050912701E52FFF27E7FDF095AC
:1010D00040912601EC0FFD1F238130E0C601042E54
:1010E00002C0959587950A94E2F7B90168237923A0
:1010F000228130E0C80102C0959587954A95E2F7B4
:1011000082239323860F971F009731F45D3024F4D8
:101110005F5F50932701D3C081E080930A01CFC065
:1011200050912701E52FFF27E7FDF095409126011B
:10113000EC0FFD1F238130E0C701042E02C09595FE
:1011400087950A94E2F7B90168237923228130E078
:10115000C80102C0959587954A95E2F782239323AB
:10116000860F971F009731F45D3024F45F5F509332
:101170002701A5C091E090930A01A1C0A091270189
:10118000EA2FFF27E7FDF09580912601992787FD3B
:101190009095AC014F5F5F4FEC0FFD1F238130E056
:1011A000C801042E02C0959587950A94E2F7B9010B
:1011B00068237923228130E0C60102C09595879586
:1011C0004A95E2F782239323860F971F009731F405
:1011D000AD3024F4AF5FA093270171C0E1E0E0934C
:1011E0000A016DC040912701842F992787FD9095B2
:1011F0008C0F9D1FFC01228130E080EF90E0009079
:10120000260102C0959587950A94E2F782239323DD
:10121000009731F44E3024F44F5F409327014FC0C4
:10122000F1E0F0930A014BC020912701822F99270A
:1012300087FD90958C0F9D1FFC01448150E08091AB
:101240002601992787FD90950296B80102C07595F1
:1012500067958A95E2F7CB0184239523009731F4B3
:101260002C3024F42F5F2093270129C071E0709364
:101270000A0125C020912701822F992787FD90958B
:101280008C0F9D1FFC01438150E08091260199271E
:1012900087FD90950196B10102C0759567958A9575
:1012A000E2F7CB0184239523009731F42D3024F409
:1012B0002F5F2093270103C071E070930A01109201
:1012C000280130C1823009F02DC18091290180951B
:1012D000909106018923823009F449C0833020F4BB
:1012E000813009F018C107C0843009F4D5C08830B6
:1012F00009F011C1DDC080912401982F93709130C5
:1013000089F440912601242F332727FD30958295BB
:101310008F7090E006962817390724F44F5F4093AA
:10132000260107C08091260185301CF48F5F8093D1
:10133000260180912401813139F480912601863083
:101340001CF085E08093260180912401803121F4F6
:101350008091260185302CF40E94E204882309F450
:10136000DFC080912601815080932601D9C08091F1
:1013700024018C3080F5982F9F5F93708C7F892B90
:10138000809324010E94C1038091240180FD12C03A
:101390008091260186303CF0815080932601809117
:1013A000240180FD07C08091260188231CF48F5FF3
:1013B000809326010E94E204882309F4B1C0809141
:1013C0002401982F915093708C7F892B8093240156
:1013D0000E94C103A5C0803180F5982F9F5F917056
:1013E0008E7F892B809324010E94C1038091240168
:1013F00080FD12C08091260186303CF081508093A0
:1014000026018091240180FD07C080912601882358
:101410001CF48F5F809326010E94E204882309F464
:101420007FC080912401982F915091708E7F892BDD
:10143000809324010E94C10373C0823108F070C000
:1014400091E080FD90E08E7F982B909324010E9484
:10145000C10380912401803171F48091260185308F
:1014600024F094E09093260106C080912601882301
:1014700014F4109226010E94E204882309F450C05B
:101480008091240191E080FD90E08E7F982B9093D5
:1014900024010E94C10344C060EA7FE0E4E8F0E078
:1014A0007183608368E873E1F3017183608338C0FE
:1014B00080912401982F9370933041F490912601EC
:1014C000992324F09150909326011BC0813141F45F
:1014D000909126019F3F24F091509093260111C0D6
:1014E000823141F480912601882324F08150809339
:1014F000260107C08091260118161CF481508093A4
:1015000026010E94E204882359F0809126018F5F12
:101510008093260105C060EB76E3F301718360835D
:10152000109228010E943D0380911F01882309F435
:101530007ACB80912901809306010E94590554CBF2
:101540001F920F920FB60F9211248F9381E0809318
:1015500028018F910F900FBE0F901F9018951F922A
:101560000F920FB60F9211248F939F9386B190E044
:101570008E719070959587958093290182E0809374
:1015800028019F918F910F900FBE0F901F9018957B
:10159000991B79E004C0991F961708F0961B881FC5
:1015A0007A95C9F78095089597FB092E07260AD0EA
:1015B00077FD04D00CD006D000201AF47095619508
:1015C0007F4F0895F6F7909581959F4F0895AA1B38
:1015D000BB1B51E107C0AA1FBB1FA617B70710F01E
:1015E000A61BB70B881F991F5A95A9F78095909550
:0A15F000BC01CD010895F894FFCF6F
:0815FA003425343229330F00BF
:00000001FF
